:100000000C9424010C9441010C9441010C94410185
:100010000C9441010C9441010C9441010C94410158
:100020000C9441010C9441010C9441010C94410148
:100030000C9441010C9441010C9441010C94410138
:100040000C9441010C9441010C9441010C94410128
:100050000C9441010C9441010C9441010C94410118
:100060000C9441010C944101000000000000005F6D
:1000700000000007000700147F147F14242A7F2A41
:10008000122313086462364955225000050300000C
:10009000001C2241000041221C0014083E081408E4
:1000A000083E0808005030000008080808080060F2
:1000B00060000020100804023E5149453E00427F86
:1000C000400042615149462141454B311814127F8D
:1000D0001027454545393C4A494930017109050316
:1000E0003649494936064949291E0036360000007E
:1000F0005636000008142241001414141414004150
:100100002214080201510906324979413E7E11113B
:10011000117E7F494949363E414141227F4141227A
:100120001C7F494949417F090909013E4149497AF2
:100130007F0808087F00417F41002040413F017F48
:10014000081422417F404040407F020C027F7F0420
:1001500008107F3E4141413E7F090909063E415159
:10016000215E7F09192946464949493101017F012C
:10017000013F4040403F1F2040201F3F4038403F4C
:100180006314081463070870080761514945430068
:100190007F41410002040810200041417F00040219
:1001A0000102044040404040000102040020545439
:1001B00054787F48444438384444442038444448C0
:1001C0007F3854545418087E0901020C5252523E92
:1001D0007F0804047800447D40002040443D007FB7
:1001E0001028440000417F40007C041804787C08FB
:1001F00004047838444444387C1414140808141453
:10020000187C7C080404084854545420043F44409B
:10021000203C4040207C1C2040201C3C4030403C86
:1002200044281028440C5050503C4464544C440022
:100230000836410000007F00000041360800100829
:10024000081008000000000011241FBECFEFD8E006
:10025000DEBFCDBF12E0A0E0B1E0E8EBFCE002C001
:1002600005900D92AC3CB107D9F725E0ACECB2E0BB
:1002700001C01D92A231B207E1F70E94AF030C94B6
:100280005A060C9400004D9903C080E090E0089558
:100290004D9B07C08FE39CE90197F1F700C0000078
:1002A000F7CF81E090E008954F9903C080E090E09F
:1002B00008954F9B07C08FE39CE90197F1F700C0B9
:1002C0000000F7CF81E090E008954E9903C080E0F0
:1002D00090E008954E9B07C08FE39CE90197F1F7EA
:1002E00000C00000F7CF81E090E00895189903C0A6
:1002F00080E090E00895189B07C08FE39CE9019788
:10030000F1F700C00000F7CF81E090E00895CF92B0
:10031000DF92EF92FF92C090D402D090D502E0908D
:10032000D602F090D70220E030E0A901C701B60163
:100330000E94D205811106C00E94A00261E085E002
:1003400091E08FC020E030E040E85EE3C701B601F5
:100350000E94D205811106C00E94A00261E083E1E3
:1003600091E07FC020E030E040E05FE3C701B601EC
:100370000E94D205811106C00E94A00261E081E2C4
:1003800091E06FC020E030E040E45FE3C701B601D8
:100390000E94D205811106C00E94A00261E08FE296
:1003A00091E05FC020E030E040E85FE3C701B601C4
:1003B0000E94D205811106C00E94A00261E08DE377
:1003C00091E04FC020E030E040EA5FE3C701B601B2
:1003D0000E94D205811106C00E94A00261E08BE458
:1003E00091E03FC020E030E040EC5FE3C701B601A0
:1003F0000E94D205811106C00E94A00261E089E539
:1004000091E02FC020E030E040EE5FE3C701B6018D
:100410000E94D205811106C00E94A00261E087E619
:1004200091E01FC020E030E040E050E4C701B60199
:100430000E94D205811106C00E94A00261E085E7FA
:1004400091E00FC020E030E040E150E4C701B60188
:100450000E94D20581110DC00E94A00261E083E8D4
:1004600091E00E948503FF90EF90DF90CF900C9475
:100470009A03FF90EF90DF90CF900895299866231C
:1004800011F02B9A01C02B9827E030E090E0AC01EE
:10049000022E02C0559547950A94E2F740FF02C02C
:1004A0002C9A01C02C982D9A2D982150310978F75B
:1004B000299A089560E00C943E02CF93DF93219A2D
:1004C000229A239A249A259A2A9A299A8FE39CE9B8
:1004D0000197F1F700C000002A989FEF2AE683E019
:1004E000915020408040E1F700C000002A9A2998EE
:1004F00081E20E945A0283E10E945A0286E00E9431
:100500005A0282EC0E945A0280E20E945A0289E05A
:100510000E945A0280E80E945A0280E40E945A0215
:10052000C8EFD1E061E080E00E943E022197D1F760
:1005300088E00E945A028CE0DF91CF910C945A021D
:1005400080E80E945A0280E40E945A021092D0046D
:100550001092D10488EF91E0E8EDF2E0DF019C0118
:100560001D9221503040E1F70895811102C084E2CC
:1005700001C080E20C945A02962F96959695969516
:10058000E82FF0E084E5989FE00DF11D1124E8527A
:10059000FD4F677081E090E001C0880F6A95EAF72F
:1005A000442319F09081892B03C080959081892381
:1005B000808308958F929F92AF92BF92DF92EF92C5
:1005C000FF920F931F93CF93DF9300D000D01F9221
:1005D000CDB7DEB7F62E282F082E000C330B803255
:1005E0006CF02052310985E0829FB001839F700D2D
:1005F000112468597F4F45E050E00EC0220F331F91
:10060000F901EE52FB4F008111810115110559F4DA
:1006100045E050E068E670E0CE0101960E94510688
:100620008E010F5F1F4F85E0F89E5001112497E067
:10063000F99E40011124D12C8D2D90E08A159B0547
:1006400044F5E12C8E2D90E08815990504F58D2D4B
:100650006F2D0E945905F801E80FF11D208130E04F
:100660008E2D0E94590502C0359527958A95E2F78F
:100670006091D1048091D0046E0D20FF02C041E052
:1006800001C040E08D0D0E94BC02E394DBCFD39407
:10069000D3CF8091D00491E0980F8F2D880F880FD1
:1006A0008F0D890F843518F48093D0040BC01092FD
:1006B000D0048091D1048F5F97E0F99E800D1124C2
:1006C0008093D1048091D104803320F01092D00423
:1006D0001092D1040F900F900F900F900F90DF9118
:1006E000CF911F910F91FF90EF90DF90BF90AF904F
:1006F0009F908F90089580323CF4E82FEE0FFF0B0F
:10070000EE52FB4F7183608308951F93CF93DF9365
:10071000162FEC018991882321F0612F0E94DA02C3
:10072000F9CFDF91CF911F9108958093D00460930A
:10073000D1040895CF93DF9380E80E945A0280E4A9
:100740000E945A02C8EDD2E061E089910E943E0207
:1007500084E0C03DD807C1F7DF91CF910895529A48
:10076000539A549A20985798569855980E945D022B
:100770000E94A00260E071E081E00E947B0361E0E2
:1007800081E991E00E9485036CE080E00E9495037E
:100790000E949A03D0E184E0F82E01E010E0C8E066
:1007A0000E9487012091D4023091D5024091D60257
:1007B0005091D7026091D0027091D1028091D20203
:1007C0009091D3020E94D20581114AC08FE99FE027
:1007D0000197F1F700C000008091CE029091CF0206
:1007E00001969093CF028093CE02843F914039F4DA
:1007F0008BB18D278BB91092CF021092CE020E943E
:100800004301019731F45C9820E030E040E85FE379
:1008100014C00E945401019731F45C9820E030E04C
:1008200040E85EE30AC00E946501019709F0BACF73
:100830005C9820E030E040E05FE36091D40270918A
:10084000D5028091D6029091D7020E9466056093EE
:10085000D4027093D5028093D6029093D702A2CF90
:100860008091CC029091CD02892B39F48BB18F25E8
:100870008BB91093CD020093CC020E9487010E9495
:100880004301019729F420E030E040E85FE311C024
:100890000E945401019729F420E030E040E85EE333
:1008A00008C00E9465010197B1F420E030E040E00B
:1008B0005FE36091D4027091D5028091D60290914D
:1008C000D7020E9466056093D4027093D50280938C
:1008D000D6029093D7020E94870120E030E040ECDE
:1008E0005FE36091D4027091D5028091D60290911D
:1008F000D7020E944C0687FDCBC08FEF99E628E116
:10090000815090402040E1F700C00000C1C05A98DB
:100910000E94A00261E08BE991E00E9485030E94A1
:100920009A030E947601019709F0B2C08BB18C271F
:100930008BB90E94A00261E081EE91E00E948503E4
:100940000E949A038FEF93ED20E381509040204066
:10095000E1F700C000005B980E94A00261E080E027
:1009600092E00E9485030E949A038FEF93ED20E3AB
:10097000815090402040E1F700C000008BB18C27EF
:100980008BB90E94A00261E08EE192E00E94850393
:100990000E949A038FEF93ED20E381509040204016
:1009A000E1F700C000005B980E94A00261E08CE3C8
:1009B00092E00E9485030E949A038FEF93ED20E35B
:1009C000815090402040E1F700C000008BB18C279F
:1009D0008BB90E94A00261E08AE592E00E94850343
:1009E0000E949A038FEF93ED20E3815090402040C6
:1009F000E1F700C000005B980E94A00261E088E778
:100A000092E00E9485030E949A038FEF93ED20E30A
:100A1000815090402040E1F700C000008BB18C274E
:100A20008BB90E94A00261E086E992E00E948503F2
:100A30000E949A038FEF93ED20E381509040204075
:100A4000E1F700C000005B980E9487011092CD0280
:100A50001092CC0220E030E040EC5FE36091D402E1
:100A60007091D5028091D6029091D7020E946505BF
:100A70006093D0027093D1028093D2029093D302FC
:100A80006093D4027093D5028093D6029093D702DC
:100A900020E030E040EC5FE36091D4027091D50239
:100AA0008091D6029091D7020E944C0687FF2FCFEB
:100AB00077CE991B79E004C0991F961708F0961B12
:100AC000881F7A95C9F7809508955058BB27AA27A3
:100AD0000E947D050C9412060E94040638F00E94C4
:100AE0000B0620F039F49F3F19F426F40C9401060C
:100AF0000EF4E095E7FB0C94FB05E92F0E9423061A
:100B000058F3BA17620773078407950720F079F442
:100B1000A6F50C9445060EF4E0950B2EBA2FA02DE9
:100B20000B01B90190010C01CA01A0011124FF279A
:100B3000591B99F0593F50F4503E68F11A16F04095
:100B4000A22F232F342F4427585FF3CF4695379594
:100B50002795A795F0405395C9F77EF41F16BA0B59
:100B6000620B730B840BBAF09150A1F0FF0FBB1F07
:100B7000661F771F881FC2F70EC0BA0F621F731F50
:100B8000841F48F4879577956795B795F7959E3FAD
:100B900008F0B0CF9395880F08F09927EE0F97953E
:100BA000879508950E94D70508F481E00895990F6C
:100BB0000008550FAA0BE0E8FEEF16161706E80727
:100BC000F907C0F012161306E407F50798F0621B48
:100BD000730B840B950B39F40A2661F0232B242B1D
:100BE000252B21F408950A2609F4A140A6958FEF3C
:100BF000811D811D089597F99F6780E870E060E08E
:100C000008959FEF80EC089500240A9416161706A5
:100C100018060906089500240A94121613061406ED
:100C200005060895092E0394000C11F4882352F050
:100C3000BB0F40F4BF2B11F460FF04C06F5F7F4F08
:100C40008F4F9F4F089557FD9058440F551F59F0EF
:100C50005F3F71F04795880F97FB991F61F09F3FA9
:100C600079F087950895121613061406551FF2CFD2
:100C70004695F1DF08C0161617061806991FF1CF22
:100C800086957105610508940895E894BB27662749
:100C90007727CB0197F908950E94D70508F48FEFC5
:100CA0000895FB01DC0102C005900D9241505040B7
:080CB000D8F70895F894FFCF76
:100CB8001024E0241053616C646F203D20302C30E8
:100CC80030200053616C646F203D20302C32352079
:100CD8000053616C646F203D20302C353020005368
:100CE800616C646F203D20302C3735200053616CD7
:100CF800646F203D20312C3030200053616C646FCC
:100D0800203D20312C3235200053616C646F203D2A
:100D180020312C3530200053616C646F203D203128
:100D28002C3735200053616C646F203D20322C3005
:100D380030200053616C646F203D20322C32352006
:100D48000053616C646F203D20300053616C646F08
:100D580020737566696369656E74652C20707265A9
:100D68007373696F6E65206F20626F74616F2064A2
:100D780065202020626169786F207061726120208F
:100D8800206F6375706172206120766167612E2023
:100D980000566167612061647175697269646120D8
:100DA800636F6D207375636573736F2C2035200036
:100DB8005661676120616471756972696461206355
:100DC8006F6D207375636573736F2C2034005661E3
:100DD80067612061647175697269646120636F6D10
:100DE800207375636573736F2C20330056616761D8
:100DF8002061647175697269646120636F6D207325
:100E080075636573736F2C203200566167612061CA
:100E1800647175697269646120636F6D20737563AD
:100E28006573736F2C2031005661676120616471AE
:100E380075697269646120636F6D2073756365738A
:100E4800736F2C20300056616761206C696265728F
:100E58006164612C2061646963696F6E65206D6FE0
:100E6800656461732070617261206F63757061726F
:0C0E7800206E6F76616D656E7465000081
:00000001FF
